:020000040800F2
:10000000C80C0120090200089306000871060008C8
:100010008B060008CF030008290A00080000000032
:100020000000000000000000000000006501000862
:100030001D02000800000000A9010008B507000823
:10004000230200082302000823020008B906000862
:1000500023020008230200082302000823020008EC
:1000600023020008230200082302000823020008DC
:1000700023020008230200082302000823020008CC
:1000800023020008230200082302000823020008BC
:1000900023020008230200082302000823020008AC
:1000A000230200082302000823020008230200089C
:1000B000230200082302000823020008230200088C
:1000C000230200082302000823020008230200087C
:1000D000230200086909000823020008230200081F
:1000E000230200082302000823020008230200085C
:1000F0002302000823020008230200080000000079
:100100002302000800000000230200082302000868
:10011000230200082302000823020008230200082B
:10012000230200082302000823020008230200081B
:100130002302000829060008230200082302000801
:1001400023020008230200082302000823020008FB
:10015000DFF80CD000F0FEF80048004719830008D3
:10016000C80C0120204B19680868B0E8F00F80F334
:100170000988BFF36F8F4FF0000080F311884EF0B5
:100180000D0E70470000000006480068006880F30C
:10019000088862B661B6BFF34F8FBFF36F8F00DF81
:1001A00000BF00BF08ED00E0EFF30980BFF36F8FE1
:1001B0000D4B1A6820E9F00F106008B54FF02000D1
:1001C00080F3118813F0D8FF4FF0000080F31188FE
:1001D000BDE8084019680868B0E8F00F80F30988A6
:1001E000BFF36F8F704700BF34010020EFF3118021
:1001F0004FF0200181F31188704780F31188704718
:10020000EFF3058070470000064880470648004726
:10021000FEE7FEE7FEE7FEE7FEE7FEE7FEE7FEE7B6
:10022000FEE7FEE729090008510100082DE9F05F0B
:100230000546002092469B46884606468146402455
:100240001BE0284641464746224600F072F85346D6
:100250005A46C01A914110D311461846224600F062
:1002600059F82D1A67EB01084F462246012000215C
:1002700000F050F817EB00094E41201EA4F10104D4
:10028000DFDC484631462A464346BDE8F09F40EA57
:1002900001039B0703D009E008C9121F08C0042A04
:1002A000FAD203E011F8013B00F8013B521EF9D2EB
:1002B0007047D2B201E000F8012B491EFBD2704713
:1002C0000022F6E710B513460A4604461946FFF722
:1002D000F0FF204610BD30B505462A460B4612F801
:1002E000010B13F8014B08B1A042F8D01CB1002853
:1002F00002D06D1CF1E7284630BD30B50446002021
:10030000034600E05B1C934203D2E05CCD5C401BE3
:10031000F8D030BD202A04DB203A00FA02F1002098
:1003200070479140C2F1200320FA03F31943904033
:100330007047202A04DB203A21FA02F0002170479E
:1003400021FA02F3D040C2F120029140084319463D
:1003500070470000064C074D06E0E06840F00103DE
:1003600094E8070098471034AC42F6D3FFF7F4FE48
:10037000505101087051010870B58C1810F8015BDC
:1003800015F0070301D110F8013B2A1106D110F82E
:10039000012B03E010F8016B01F8016B5B1EF9D132
:1003A0002B0705D40023521E0DD401F8013BFAE7B8
:1003B00010F8013BCB1A921C03E013F8015B01F823
:1003C000015B521EF9D5A142D8D3002070BD01E0D7
:1003D00000F03EFBFCE7000010B50348002101607F
:1003E000818000F0EBF810BD3C00002010B5FF222A
:1003F00006210348FFF75DFF00F0E0F810BD0000A4
:100400003C00002010B5552206210348FFF751FF9C
:1004100000F0D4F810BD00003C00002010B50446E8
:1004200000F0D8F910BD000070B50546802420E02A
:1004300000224FF40061104805F0F4FD0A2000F09E
:100440001BF905EA040028B1012291020A4805F0CF
:10045000E9FD05E000224FF48061074805F0E2FD68
:100460000122D102044805F0DDFD0A2000F004F964
:100470006410002CDCD170BD00100140062906DAA2
:100480000C2804DA0C4A125C0C4B5A5412E0062970
:1004900010D1094A125C3A2A06D1084A927842F0F1
:1004A0008002064B9A7005E0044A927802F07F02BF
:1004B000024B9A70704700009C4D01083C000020E0
:1004C00010B540F204600CF0ADFA4FF480630322E3
:1004D0001021164805F0BAFD40F204600CF0A2FAB3
:1004E0004FF4006303221021104805F0AFFD40F2E5
:1004F00004600CF097FA4FF48053032210210B484C
:1005000005F0A4FD00224FF48061084805F08AFD43
:1005100000224FF40061054805F084FD00224FF4ED
:100520008051024805F07EFD10BD00000010014022
:1005300038B5124800210160818000F03FF8104872
:10054000002301224FF47A7100900EA014F09EFB5C
:10055000104908600846006858B114F0E3F90446F1
:10056000002003462246012100900A48006814F04A
:10057000DBFB502108A000F05BFA38BD3C000020F6
:100580001D040008446973506C617954696D65728B
:100590000000000038000020646973706C617920ED
:1005A00064726976657220696E6974204F4B2120F0
:1005B0006C696E65203D202564200A0010B500227C
:1005C0004FF48051164805F02DFD0A2000F054F834
:1005D000002405E01349085DFFF726FF601CC4B244
:1005E000062CF7DB00224FF400610D4805F01AFDE0
:1005F000012291020A4805F015FD0A2000F03CF89E
:1006000001221103064805F00DFD0A2000F034F820
:1006100000224FF48051024805F004FD10BD000097
:10062000001001403C00002008B5002000900D485B
:1006300003F042FE012804D169460B48006814F01B
:1006400040F8084803F02CFE06480A3003F028FE64
:10065000009828B1009818B14FF080500349086005
:1006600008BD0000060504002801002004ED00E09C
:1006700001E000F0EDF9FCE7322200FB02F100BFDF
:100680000A1EA1F10101FBD1704701E000F0E0F981
:10069000FCE770473EB504460420ADF8000005486D
:1006A000006830B100231A4669460248006813F01A
:1006B00011FF3EBD000000201FB501200CF02CFCF6
:1006C00010B101200CF020FC0CF004FC0D49086076
:1006D000084601680C480CF055FC0B4800780A49A4
:1006E0004978094A9278084B1B79CDE90032CDE967
:1006F00002100548C3784279C188044800F098F98F
:100700001FBD0000280000202C000020104F010811
:1007100013B582B0002001900CF09EFB4AF2A55167
:10072000012000F005FC0BF0B5FF01AADDE9020194
:1007300013F09AF90CF0FCFB01980CF0D5FB0CF0CF
:10074000F7FB0CF0F5FB00F045F80F48006858B1D6
:1007500014F0E8F8044600200346224602210090E7
:100760000948006814F0E0FA0848006858B114F02D
:10077000D9F804460020034622460221009003488F
:10078000006814F0D1FA1FBD3800002034000020AA
:1007900010B504460CF09EFB044908600846016849
:1007A00003480CF0EFFB05F0ADFB10BD2800002066
:1007B0002C00002010B5FFF719FD14F0B9F818B19E
:1007C0004FF08050024908600020FFF716FD10BD71
:1007D00004ED00E03EB54D480068401C4B49086000
:1007E0004B480021016081804A4880780A2190FBB3
:1007F000F1F0C4B200212046FFF740FE4548807862
:100800000A2190FBF1F201FB1200C4B20121204643
:10081000FFF734FE3F4840780A2190FBF1F0C4B264
:1008200002212046FFF72AFE3A4840780A2190FB31
:10083000F1F201FB1200C4B203212046FFF71EFEB5
:1008400035480078D0B9334800780A2190FBF1F0A0
:10085000C4B205212046FFF711FE2E4800780A2178
:1008600090FBF1F201FB1200C4B204212046FFF715
:1008700005FE06210A20FFF701FE0DE0234800785F
:1008800000F0010020B906210A20FFF7F7FD03E080
:1008900006210B20FFF7F2FDFFF790FE1D480078C0
:1008A0000A2190FBF1F201FB1200A0B91B4800786D
:1008B000012810D11A48007868B90020ADF800006E
:1008C0001848006830B100231A4669461548006888
:1008D00013F000FE00BF0F49087800EBD0714910FB
:1008E000A0EB410189B90D49097801290DD10320F7
:1008F000ADF800000B48006830B100231A46694685
:100900000848006813F0E6FD00BF3EBD440000202B
:100910003C0000202C0000204200002005000020A8
:10092000240000202000002010B50D48006840F091
:1009300001000B49086000204860C8620846006852
:1009400008490840064908604FF47F00886008465F
:10095000006820F4802008600CF066FF10BD0000E5
:1009600000100240FFFFF6EA0EB52149214813F0BE
:100970003DF878B12048006863280BDA1D4812F072
:10098000B5FFC1B21C4802680068401C1A4B1860D1
:100990001A4881541A49174813F028F838B300212F
:1009A000154802680068401C134B186013488154B6
:1009B00014A000F03DF812490E4813F00AF8052083
:1009C000ADF800000D4801900B48008880B2ADF8EA
:1009D00002001448006830B100231A4669461148E5
:1009E000006813F018FE00200349086000BF0EBD28
:1009F00005030500003801401C000020A401002070
:100A000004200B22525820696E74657272757074DE
:100A100020666C61672074696D65206F7574212094
:100A20000A2000000000002001E000F011F8FCE7BF
:100A30000FB4054B10B503A9044A029800F038F82A
:100A400010BC5DF814FB0000415E0008A00100200E
:100A500000BF00BF00BFBFF34F8F00BF00BF00BF8C
:100A60000948006800F4E06008490843001D064991
:100A7000086000BF00BF00BFBFF34F8F00BF00BFC3
:100A800000BF00BF00BFFDE70CED00E00000FA056D
:100A900002E008C8121F08C1002AFAD17047704747
:100AA000002001E001C1121F002AFBD170470000A5
:100AB0002DE9FF4F8DB09B460F460446002606E009
:100AC00025280BD05A460F999047641C761C207835
:100AD0000028F5D111B03046BDE8F08F0025A846BA
:100AE0000122984900E0054314F8013F203B02FA37
:100AF00003F00842F7D120782E2817D114F8010FFF
:100B000045F004052A280ED06FF02F022078A0F1BE
:100B1000300109290AD808EB880102EB410100EBFA
:100B20000108641CF2E757F8048B641C20786C28D9
:100B30000DD004DC4C2812D06A2811D104E07428AE
:100B40000DD07A280CD10AE045F4001507E0617851
:100B500045F48015814202D1641C05F58015641CA2
:100B60002278692A45D008DC002AB3D0582A69D0F7
:100B7000632A10D0642A08D13BE0702A67D0732A18
:100B800013D0752A5CD0782A5CD010465A460F994B
:100B90009047761CD3E017F8040B8DF80000002076
:100BA0008DF80100E946012003E057F8049B4FF05F
:100BB000FF3069074FF0000501D40AE06D1C454580
:100BC0000DDA8542FADB19F805100029F6D106E0A6
:100BD0006D1C8542FCDB19F805100029F8D12E4464
:100BE00004E019F8010B5A460F9990476D1EF8D290
:100BF000A5E00A200021CDE90801C5F30250022832
:100C00000DD001CFC117031E71F100030DDA4FF0B3
:100C1000000CD0EB0C006CEB01012D2308E0FF1D54
:100C200027F00707F7E80201EDE72B0504D52B2392
:100C30008DF8283001233BE0EB0739D02023F7E77C
:100C40000A2000E010200021CDE9080107E0102073
:100C5000002145F00405CDE908014FF00808C5F36F
:100C6000025002280FD001CF00214FF0000A2B07BD
:100C70001FD5702A0DD0DDE908C38CF0100C5CEA9A
:100C8000030C0CD015E0FF1D27F00707F7E8020161
:100C9000EBE740228DF828204FF0010A0BE050EAE4
:100CA000010306D030238DF828308DF82920022347
:100CB0009A46582A04D024A20DF120090B9209E08B
:100CC00026A2F9E7DDE90823FFF7B0FA0B9B9B5C4E
:100CD00009F8013D50EA0102F4D1ADEB09002030E2
:100CE0000890680701D44FF001080899884502DD93
:100CF000A8EB010000E000208046002506E00AA8DD
:100D00005A46405D0F9990476D1C761C5545F6DBA1
:100D100004E030205A460F999047761CB8F1000144
:100D2000A8F10108F5DC05E019F8010B5A460F9906
:100D30009047761C0899481E08900029F4DC641C32
:100D4000C5E600000928010030313233343536372A
:100D50003839616263646566000000003031323307
:100D600034353637383941424344454600000000A7
:100D70002DE9F04706460F469046354600BF00BFB6
:100D800005F114000CF012FB28B900BF00BF6FF092
:100D90000500BDE8F0872878E96A08F019FB0446E9
:100DA00014B94FF0FF30F4E7676020460CF026FAE4
:100DB00084F80880214605F114000CF0E7FA30B3FE
:100DC000D4F80490002148460CF042FE0021484629
:100DD0000FF074FE0021484610F0F6F804220021BE
:100DE00048460EF0DFFD002148460DF0CDFB002007
:100DF000606004F110000CF0A1FA04F110000CF096
:100E0000C2FA204608F050FC4FF0FF30C1E7E86A14
:100E100020B1002211462846EB6A98470020B8E727
:100E20002DE9F04105460E46002447E00CF04BFA50
:100E3000074604EB4400244951F83000C8BB04EBDA
:100E4000440041F8305038460CF06DFA002004EBB5
:100E500044011D4A02EBC101486004EB440102EB6E
:100E6000C101088104EB440102EBC10148812878EB
:100E7000102804D10EB1012002E0002000E0012082
:100E800004EB4401104A02EBC1018881002004EB0D
:100E9000440102EBC101C88104EB440102EBC10132
:100EA000086104EB440102EBC10148612046BDE842
:100EB000F081FFE738460CF036FA641C042CB5DBF1
:100EC0004FF0FF30F3E70000348E002010B50446E9
:100ED00000BF00BF04F038FB0022034941F2883014
:100EE0000CF0CCFA10BD0000CD0E000810B50BF0D0
:100EF000E5FB0BF0D9FB10BD014600200B2909DBF7
:100F00002A2907DCA1F10B02084B03EB8202B2F89D
:100F1000400C09E0012907DB0A2905DC4A1E034BC6
:100F200003EB8202B2F8040C70470000006000403E
:100F30000B2809DB2A2807DCA0F10B02084B03EB86
:100F40008202A2F8401C09E0012807DB0A2805DC20
:100F5000421E034B03EB8202A2F8041C7047000000
:100F60000060004070B504460D4600BF002C09D15A
:100F700000BF10A340F225321AA11EA0FFF758FDB2
:100F800000BF70BD00BF00BF00BF206A78B1206AFB
:100F9000007B08280BD100BF00BF2868216A496A7E
:100FA000884204D100BF00BF204600F0D9FA00BF3C
:100FB000E7E700002E2E5C2E2E5C2E2E5C54686916
:100FC00072645F70617274795C6C7769702D312E18
:100FD000342E315C7372635C636F72655C6468634A
:100FE000702E63006E6574696620213D204E554C5D
:100FF0004C000000417373657274696F6E20222586
:101000007322206661696C6564206174206C696E6E
:101010006520256420696E2025730D0A00000000FC
:101020007CB5064600BF002E09D100BF47A34FF490
:10103000697252A158A0FFF7FBFC00BF7CBD00BF46
:10104000346A00BF002C09D100BF40A340F2A63291
:101050005CA151A0FFF7ECFC00BFEFE700BF00BFB1
:1010600000BF606B401C90B100BF00BF606B1E30C2
:101070003C21B0FBF1F5B5F5803F01D34FF6FF758C
:10108000A583A08B08B90120A08300BF00BFA06B7F
:10109000401C90B100BF00BFA06B1E303C21B0FBD4
:1010A000F1F5B5F5803F01D34FF6FF75E583E08B91
:1010B00008B90120E08300BF00BFA08BE18B88420C
:1010C00004DBE08B002801DD0020A083A07B10B1B1
:1010D000A06A019010E094F824007F2802DCFF2130
:1010E000019108E0C02803DB6FF07F41019102E02D
:1010F0004FF6FF71019100BFE06A0090684608B1A9
:10110000009838B9606A019908400090009840F052
:101110008070009000BF00BF04F12401304609F048
:10112000E1F900BF00BF01A9304609F01DFA00BF78
:1011300000BF6946304609F0CCF9304609F01CFA88
:101140000A21204601F086FB00BF77E72E2E5C2E99
:101150002E5C2E2E5C54686972645F7061727479C3
:101160005C6C7769702D312E342E315C7372635C48
:10117000636F72655C646863702E6300646863709B
:101180005F62696E643A206E6574696620213D2055
:101190004E554C4C00000000417373657274696FCA
:1011A0006E2022257322206661696C65642061745B
:1011B000206C696E6520256420696E2025730D0AF8
:1011C00000000000646863705F62696E643A2064C6
:1011D00068637020213D204E554C4C002DE9F041B4
:1011E0000646346A00BF00BF0821204601F032FBEA
:1011F000002204F12401304603F018FF05460DB12A
:1012000000BF00BF607B401C60734FF4FA7707F2A9
:10121000F310394690FBF1F0608300BF00BFBDE8DA
:10122000F081000010B51248046800BF00BF1BE049
:10123000206AC0B1206AC18B481E226AD08301296E
:1012400005D100BF00BF204601F084FC0BE0206AFE
:10125000818B481E226A9083012904D100BF00BF00
:10126000204601F063FC2468002CE1D110BD000091
:101270009C0000202DE9F04106460C46174600BFB1
:10128000002E0CD100BF69A340F27C6273A17BA049
:10129000FFF7CEFB00BF6FF00D00BDE8F08100BF8F
:1012A00000BF002C0AD100BF60A340F27D627EA186
:1012B00072A0FFF7BDFB00BFA01FEEE700BF00BF9D
:1012C0002069002808D000BF58A340F27E627EA1AA
:1012D0006AA0FFF7ADFB00BF00BF00BF6069002838
:1012E00008D000BF51A340F27F6281A163A0FFF745
:1012F0009FFB00BF00BF00224FF49A71104609F017
:1013000079FB2061206920B900BF00BF4FF0FF309A
:10131000C3E700BF20694089B0F59A7F08D200BFBB
:1013200042A340F286627CA154A0FFF781FB00BF7C
:1013300000BF607B20B988480068401C864908606F
:1013400085480068206000BF00BF20694068606178
:101350000120616908706169487096F8260061692A
:10136000887000206169C870206806F021FA616900
:101370004860002061690881616948816169C860CD
:10138000082F09D0042F07D0032F08D1207B052870
:1013900002D0207B042802D170686169C8600020F7
:1013A00061690861616948616169886100250DE0D2
:1013B00096F82600A84203DD06F12700405D00E014
:1013C000002061691C314855681C85B2102DEFD38F
:1013D000002505E0002160692C304155681C85B26C
:1013E000402DF7D3002505E0002160696C304155A0
:1013F000681C85B2802DF7D358486169C1F8EC00AC
:1014000000202083002504E06069F0304555681C09
:1014100085B2442DF8D301223521204600F096FAFA
:101420003946204600F0E4FA002036E72E2E5C2EE6
:101430002E5C2E2E5C54686972645F7061727479E0
:101440005C6C7769702D312E342E315C7372635C65
:10145000636F72655C646863702E630064686370B8
:101460005F6372656174655F6D73673A206E657462
:10147000696620213D204E554C4C00004173736538
:101480007274696F6E2022257322206661696C6513
:1014900064206174206C696E6520256420696E206B
:1014A00025730D0A00000000646863705F63726555
:1014B0006174655F6D73673A206468637020213DD5
:1014C000204E554C4C000000646863705F63726589
:1014D0006174655F6D73673A20646863702D3E7058
:1014E0005F6F7574203D3D204E554C4C0000000050
:1014F000646863705F6372656174655F6D73673A9A
:1015000020646863702D3E6D73675F6F7574203D56
:101510003D204E554C4C0000646863705F637265FB
:101520006174655F6D73673A20636865636B2074EF
:1015300068617420666972737420706275662063D6
:10154000616E20686F6C64207374727563742064BC
:101550006863705F6D73670080000020638253636F
:101560002DE9F84305462C6A002600BF00BF0C2178
:10157000204601F06FF9042221462846FFF77AFE43
:1015800006460EBB04223221204600F0DFF9606AD5
:1015900006F07AF980464146204600F08DFA204652
:1015A00000F058FB228BF03291B220690AF032F839
:1015B000009543230E4A2169606811F093FA204692
:1015C00000F018F800BF01E000BF00BF607B401CC6
:1015D000607342F2107707F2F3104FF4FA7190FB48
:1015E000F1F0608300BF00BF3046BDE8F883000023
:1015F0002C4E010810B5044600BF002C09D100BFD5
:1016000017A340F2C96222A129A0FFF711FA00BF77
:1016100010BD00BF00BF2069002808D100BF10A383
:1016200040F2CA622DA122A0FFF702FA00BF00BF5C
:1016300000BF6069002808D100BF09A340F2CB6257
:1016400030A11BA0FFF7F4F900BF00BF206910B163
:10165000206909F071FE00202061606100BFD7E7BA
:101660002E2E5C2E2E5C2E2E5C54686972645F7088
:10167000617274795C6C7769702D312E342E315C17
:101680007372635C636F72655C646863702E630081
:10169000646863705F64656C6574655F6D73673AF9
:1016A000206468637020213D204E554C4C000000A2
:1016B000417373657274696F6E20222573222066F0
:1016C00061696C6564206174206C696E65202564B5
:1016D00020696E2025730D0A0000000064686370A5
:1016E0005F64656C6574655F6D73673A20646863F9
:1016F000702D3E705F6F757420213D204E554C4C0F
:1017000000000000646863705F64656C6574655F09
:101710006D73673A20646863702D3E6D73675F6F09
:10172000757420213D204E554C4C0000F8B50546FF
:101730002C6A002600BF00BF002060620621204600
:1017400001F088F8012221462846FFF793FD06465E
:10175000002E3AD100BF00BF02223921204600F0FE
:10176000F5F8A98C204600F025FA042237212046FE
:1017700000F0ECF80121204600F03AF90321204660
:1017800000F036F91C21204600F032F906212046EF
:1017900000F02EF9204600F05DFA00BF00BF228B5A
:1017A000F03291B2206909F035FF00BF00BF00950B
:1017B0004323164A2169606811F094F900BF00BF05
:1017C0002046FFF717FF00BF01E000BF00BF607BAE
:1017D000401C6073607B062803DA617B012088402F
:1017E00000E03C2000EB4001C1EBC0104FF6FF7160
:1017F00001EAC00707F2F3104FF4FA7190FBF1F021
:10180000608300BF00BF3046F8BD00002C4E0108C9
:1018100010B5104804681AE0206AB8B1206A408BFD
:10182000012805DD206A408B401E216A48830DE0B7
:10183000206A408B012809D1206A408B401E216A12
:10184000488300BF00BF204601F004FA2468002C42
:10185000E2D110BD9C00002070B505462C6A002026
:10186000A062E0621848C07810B11848C0682063D0
:101870001548007918B115480069606302E0206BD3
:10188000400860631048407918B110484069A0636F
:1018900001E0206BA063A068006960620A4880795B
:1018A00038B10A49886905F083FFA0620120A0735E
:1018B00001E00020A0730448C07920B10349C86941
:1018C00005F076FFE06270BD083F0020E03E00209A
:1018D00070B50446256A00BF00BF204608F0E4FD4D
:1018E0000949204608F0FEFD0749204608F0F1FDB1
:1018F0000549204608F038FE0C21284600F0AAFFD2
:101900002046FFF713FF70BD284E010870B505464D
:101910002C6A00BF00BF0B48807878B10A498868FC
:1019200005F046FF206200BF00BFA068006960624A
:1019300000BF00BF284600F00BFF01E000BF00BF62
:1019400070BD0000083F0020E03E002070B5044656
:101950000E46154600BF208B801C2844442808D919
:1019600000BF0BA340F2F642154916A0FFF760F83E
:1019700000BF00BF218B481C20836069F0304654B3
:10198000218B481C20836069F030455470BD0000F5
:101990002E2E5C2E2E5C2E2E5C54686972645F7055
:1019A000617274795C6C7769702D312E342E315CE4
:1019B0007372635C636F72655C646863702E63004E
:1019C000B04F0108417373657274696F6E202225F0
:1019D0007322206661696C6564206174206C696E95
:1019E0006520256420696E2025730D0A0000000023
:1019F00070B504460D4600BF208B442808D300BFB5
:101A000007A340F2015212A120A0FFF711F800BF76
:101A100000BF218B481C20836069F030455470BDA5
:101A20002E2E5C2E2E5C2E2E5C54686972645F70C4
:101A3000617274795C6C7769702D312E342E315C53
:101A40007372635C636F72655C646863702E6300BD
:101A5000646863705F6F7074696F6E5F62797465DC
:101A60003A20646863702D3E6F7074696F6E735FA7
:101A70006F75745F6C656E203C20444843505F4F27
:101A80005054494F4E535F4C454E000041737365AF
:101A90007274696F6E2022257322206661696C65FD
:101AA00064206174206C696E6520256420696E2055
:101AB00025730D0A0000000070B504460D4600BFF6
:101AC000208B001D442808D900BF13A34FF4A26245
:101AD0001DA12DA0FEF7ACFF00BF00BF290E228B79
:101AE000501C20836069F0308154C5F30741228B7C
:101AF000501C20836069F0308154C5F30721228B8C
:101B0000501C20836069F0308154228B501C20834C
:101B10006069F030855470BD2E2E5C2E2E5C2E2E0A
:101B20005C54686972645F70617274795C6C776927
:101B3000702D312E342E315C7372635C636F72656D
:101B40005C646863702E6300646863705F6F7074B8
:101B5000696F6E5F6C6F6E673A20646863702D3ECC
:101B60006F7074696F6E735F6F75745F6C656E20F4
:101B70002B2034203C3D20444843505F4F50544973
:101B80004F4E535F4C454E00417373657274696FDD
:101B90006E2022257322206661696C656420617461
:101BA000206C696E6520256420696E2025730D0AFE
:101BB0000000000070B504460D4600BF208B801C5D
:101BC000442808D900BF0BA34FF4A162154916A001
:101BD000FEF72EFF00BF00BF290A228B501C208376
:101BE0006069F0308154228B501C20836069F03092
:101BF000855470BD2E2E5C2E2E5C2E2E5C54686992
:101C000072645F70617274795C6C7769702D312ECB
:101C1000342E315C7372635C636F72655C646863FD
:101C2000702E63006C4F0108417373657274696FA5
:101C30006E2022257322206661696C6564206174C0
:101C4000206C696E6520256420696E2025730D0A5D
:101C50000000000010B5044600BF002C09D100BFF1
:101C600020A340F2DE622BA133A0FEF7E1FE00BF0D
:101C700010BD00BF00BF6069002808D100BF19A3D4
:101C800040F2DF6237A12CA0FEF7D2FE00BF00BFFA
:101C900000BF208B442808D300BF12A34FF4DC629E
:101CA0003BA125A0FEF7C4FE00BF00BFFF21228B91
:101CB000501C20836069F030815406E00021228BA3
:101CC000501C20836069F0308154208B442803D35A
:101CD000207E00F0030010B1208B4428EED300BF1B
:101CE000C6E700002E2E5C2E2E5C2E2E5C546869FA
:101CF00072645F70617274795C6C7769702D312EDB
:101D0000342E315C7372635C636F72655C6468630C
:101D1000702E6300646863705F6F7074696F6E5FCC
:101D2000747261696C65723A206468637020213D49
:101D3000204E554C4C000000417373657274696FFE
:101D40006E2022257322206661696C6564206174AF
:101D5000206C696E6520256420696E2025730D0A4C
:101D600000000000646863705F6F7074696F6E5F7D
:101D7000747261696C65723A20646863702D3E6D9F
:101D800073675F6F757420213D204E554C4C0A00DF
:101D9000646863705F6F7074696F6E5F747261699D
:101DA0006C65723A20646863702D3E6F7074696F61
:101DB0006E735F6F75745F6C656E203C20444843A2
:101DC000505F4F5054494F4E535F4C454E0A0000F0
:101DD0002DE9F34F89B089460020069005900A212D
:101DE000F848FEF76DFAB9F80A002C2804DA6FF00B
:101DF00001000BB0BDE8F08FD9F80410099881609C
:101E00004FF0F00BB9F80800079000BF4C460AE00D
:101E10006089ABEB00001FFA80FB61890798401ACC
:101E200080B20790246814B160895845F0DD14B978
:101E30006FF00100DDE75F46DDF81CA060680890E8
:101E4000A2E10898C05D049000264FF0FF38B81C4E
:101E500080B203906189781C814203DD791C089867
:101E6000455C07E0206818B120684068007800E011
:101E7000002005462E460498342870D00BDC032839
:101E80002BD003DC80B101286AD113E0062838D0BA
:101E90003328F9D165E0352872D0362871D03A2838
:101EA00070D03B28F0D1BEE0002005460646781EE3
:101EB00087B2CFE000BF042D0BD000BFC2A340F219
:101EC0007B52CDA1CFA0FEF7B3FD00BF6FF00500A0
:101ED0008FE700BF4FF00608BCE0042600BFB54204
:101EE0000BDA00BFB8A34FF4B062D1A1C5A0FEF7D2
:101EF0009FFD00BF6FF005007BE700BF4FF00708B4
:101F0000A8E000BFE91705EB91718910A5EB8101ED
:101F100059B100BFACA340F28552CAA1B9A0FEF7E7
:101F200087FD00BF6FF0050063E700BF082D01DAF1
:101F3000284600E00820064600BFB5420BDA00BF85
:101F4000A1A34FF4B162BAA1AEA0FEF771FD00BF2C
:101F50006FF005004DE700BF4FF008087AE016E08B
:101F600074E000BF042D0ED000BF97A340F28C5246
:101F7000A1A1A4A0FEF75CFD00BF6FF0050038E74B
:101F800018E02AE03CE000BF4FF0030862E000BF29
:101F9000012D0BD000BF8CA34FF4B262ADA199A06C
:101FA000FEF746FD00BF6FF0050022E700BF4FF0CF
:101FB00000084FE000BF012D0BD000BF82A340F20C
:101FC0009452A4A18FA0FEF733FD00BF6FF005006F
:101FD0000FE700BF4FF001083CE000BF042D0BD01D
:101FE00000BF79A34FF4B36283A186A0FEF720FD62
:101FF00000BF6FF00500FCE600BF4FF0020829E0CB
:1020000000BF042D0BD000BF6FA340F29C527AA1F9
:102010007CA0FEF70DFD00BF6FF00500E9E600BFF4
:102020004FF0040816E000BF042D0BD000BF66A3DC
:102030004FF4B46270A173A0FEF7FAFC00BF6FF01A
:102040000500D6E600BF4FF0050803E0002600BFFC
:1020500000BF00BF00BFA81C384487B2002E71DD4E
:102060000020029000BF00BFB8F1000F02DBB8F102
:102070000A0F08DB00BF54A340F2AD5278A161A063
:10208000FEF7D6FC00BF00BF4E4810F8080000283D
:1020900057D1042E01DA304600E00420019002A955
:1020A0002046039B019A09F09BF8042E27DD00BF10
:1020B000F11706EB91718910A6EB810159B100BFB0
:1020C00041A340F2B3526BA14EA0FEF7B1FC00BF9A
:1020D0006FF005008DE600BF01203A4901F80800C5
:1020E000029805F065FB684941F82800301FC6B228
:1020F0000398001D80B2039008F10108B3E7042E95
:1021000004D1029805F0C0FB029012E000BF012E3E
:102110000BD000BF2CA340F2BD525CA139A0FEF74A
:1021200087FC00BF6FF0050063E600BF9DF8080064
:1021300002900120234901F808005349029841F810
:10214000280000BF6089B8421DDC6089381A87B258
:102150006089AAEB00001FFA80FA574512DABAF13B
:10216000000F0FD0246800BF44B900BF16A340F28F
:10217000C9524BA123A0FEF75BFC00BF00BF606803
:10218000089000E008E000BF34B10898C05DFF2867
:1021900002D05745FFF655AE00BF0A48007880B11F
:1021A000394908680021074A1170012803D101212B
:1021B000069100BF88E002287DD10121059100BF72
:1021C00082E082E0083F00202E2E5C2E2E5C2E2E18
:1021D0005C54686972645F70617274795C6C776971
:1021E000702D312E342E315C7372635C636F7265B7
:1021F0005C646863702E63006C656E203D3D203426
:1022000000000000417373657274696F6E202225AF
:102210007322206661696C6564206174206C696E4C
:102220006520256420696E2025730D0A00000000DA
:102230006C656E203E3D206465636F64655F6C6510
:102240006E0000006C656E20252034203D3D20305E
:10225000000000006C656E203D3D20310000000054
:10226000636865636B206465636F64655F69647848
:10227000000000006465636F64655F6C656E202517
:102280002034203D3D203000E03E0020696E766124
:102290006C6964206465636F64655F6C656E0000E3
:1022A0006E657874207062756620776173206E7534
:1022B0006C6C0000FFE7032804D101210591069111
:1022C00000BF01E000BF00BF00BF069830B1002092
:1022D00006904FF06C0BEC20079097E5059830B115
:1022E000002005904FF02C0B6C2007908EE500200D
:1022F0007FE50000F8B505462C6A00BF00BF042149
:10230000204600F0A7FA032221462846FEF7B2FF36
:102310000646EEB9022239212046FFF717FBA98CA9
:102320002046FFF747FC2046FFF794FC228BF03253
:1023300091B2206909F06EF900954323124A216990
:10234000606810F0CFFB2046FFF754F900BF01E0B2
:1023500000BF00BF607B401C6073607B0A2805DA09
:10236000607B4FF47A7110FB01F001E042F21070D3
:1023700087B207F2F3104FF4FA7190FBF1F060832B
:1023800000BF00BF3046F8BD2C4E01082DE9F843D0
:1023900005462C6A00BF00BF0321204600F05AFA10
:1023A000032221462846FEF765FF06465EBB022251
:1023B00039212046FFF7CAFA4FF410712046FFF783
:1023C000F9FB042232212046FFF7C0FA606A05F0CB
:1023D0005BFA804641462046FFF76EFB2046FFF73A
:1023E00039FC228BF03291B2206909F013F9009583
:1023F0004323134A2169606810F074FB2046FFF7FD
:10240000F9F800BF01E000BF00BF607B401C6073B3
:10241000607B0A2805DA607B4FF47A7110FB01F0CB
:1024200001E042F2107087B207F2F3104FF4FA7134
:1024300090FBF1F0608300BF00BF3046BDE8F88339
:102440002C4E01082DE9F05F81461546DDF828B0D5
:102450004F463C6AD5F804A000BF00BF00BF00BFD4
:1024600000BF00BF00BFA068002808D000BF46A37F
:1024700040F2116250A155A0FEF7DAFA00BF00BF8A
:1024800068892C2802DA00BF00BF75E09AF80000C6
:10249000022802D000BF00BF6EE000260CE007F16A
:1024A0002700815D0AF11C00805D814202D000BFDF
:1024B00000BF61E0701CC6B297F82600B042EEDCA7
:1024C000DAF8040005F0E0F92168884202D000BF84
:1024D00000BF51E029462046FFF77AFC10B100BF4B
:1024E00000BF49E000BF00BF4348407810B900BFBB
:1024F00000BF41E0414890F80480B8F1050F18D1C1
:1025000000BF00BF207B012806D13846FFF7A4F9A1
:102510003846FEF763FE2EE0207B032805D0207BA3
:10252000042802D0207B052825D13846FEF778FD07
:1025300021E0B8F1060F11D1207B032808D0207BC1
:10254000012805D0207B042802D0207B052805D156
:1025500000BF00BF3846FFF7BBF90CE0B8F1020F2F
:1025600009D1207B062806D100BF00BF0020608370
:102570003846FFF7CBF900BF0020A060284608F0DE
:10258000DBFEBDE8F09F00002E2E5C2E2E5C2E2E72
:102590005C54686972645F70617274795C6C7769AD
:1025A000702D312E342E315C7372635C636F7265F3
:1025B0005C646863702E63007265706C792077616B
:1025C000736E2774206672656564000041737365DD
:1025D0007274696F6E2022257322206661696C65B2
:1025E00064206174206C696E6520256420696E200A
:1025F00025730D0A00000000083F0020E03E002087
:10260000F8B505462C6A00BF00BF0021204600F047
:1026100021F9002020626062A062E062A063606332
:102620002063072221462846FEF724FE0646AEB95F
:102630002046FFF70FFB228BF03291B2206908F0A1
:10264000E9FF0095432304F120022169606810F03E
:1026500049FA2046FEF7CEFF00BF01E000BF00BFF1
:10266000607B401C6073607B0A2805DA607B4FF456
:102670007A7110FB01F001E042F2107087B207F2AC
:10268000F3104FF4FA7190FBF1F0608300BF00BFCC
:10269000284607F009FF0749284607F023FF0549A8
:1026A000284607F016FF0349284607F05DFF30462D
:1026B000F8BD0000284E0108F8B505462C6A00BF99
:1026C00000BF0521204600F0C5F803222146284618
:1026D000FEF7D0FD0646F6B9022239212046FFF763
:1026E00035F9A98C2046FFF765FA2046FFF7B2FAC4
:1026F000228BF03291B2206908F08CFF00954323C1
:1027000004F120022169606810F0ECF92046FEF720
:1027100071FF00BF01E000BF00BF607B401C607321
:10272000607B0A2805DA607B4FF4FA6110FB01F048
:1027300001E044F6206087B207F2F3104FF4FA711B
:1027400090FBF1F0608300BF00BF3046F8BD000091
:102750002DE9F84305462C6A00BF00BF0121204641
:1027600000F078F8032221462846FEF783FD06464E
:10277000002E4CD1022239212046FFF7E7F8A98C20
:102780002046FFF717FA042232212046FFF7DEF831
:10279000606A05F079F8804641462046FFF78CF9DB
:1027A000042236212046FFF7D1F8206A05F06CF8A4
:1027B000804641462046FFF77FF904223721204614
:1027C000FFF7C4F801212046FFF712F90321204644
:1027D000FFF70EF91C212046FFF70AF906212046D3
:1027E000FFF706F92046FFF735FA228BF03291B257
:1027F000206908F00FFF00954323154A216960689E
:1028000010F070F92046FEF7F5FE00BF01E000BFB2
:1028100000BF607B401C6073607B062803DA617B2D
:102820000120884000E03C2000EB4001C1EBC010DB
:102830004FF6FF7101EAC00707F2F3104FF4FA7187
:1028400090FBF1F0608300BF00BF3046BDE8F88325
:102850002C4E0108027B8A4203D00173002242738E
:102860004283704770B50546002600BF002D0BD18E
:1028700000BF48A340F27A2252A156A0FEF7D8F832
:1028800000BF6FF00D0070BD00BF2C6A00BF00BF1D
:1028900015F82D0F20F00800287015F82D0900F00C
:1028A000200020B900BF00BF6FF00D00EBE7A88C3F
:1028B000B0F5107F04DA00BF00BF4FF0FF30E2E751
:1028C00074B900BF00BF3C2006F05EF8044624B98E
:1028D00000BF00BF4FF0FF30D5E72C6200BF20E003
:1028E00000BF00BF606810B1606810F0B5F800BFAD
:1028F000206940B100BF27A340F29E2240A135A02D
:10290000FEF796F800BF00BF00BFA06840B100BF4F
:1029100020A340F29F2240A12EA0FEF789F800BF1D
:1029200000BF3C212046FDF7CBFC10F057F860605B
:10293000606820B900BF00BF4FF0FF30A3E76068B8
:10294000007A40F0200061680872442237496068CC
:102950000FF026FE4322354960680FF0ADFE2A468F
:102960003349606810F074F800BF00BF2846FEF7D6
:10297000DDFE06462EB1284600F05CF84FF0FF3031
:1029800081E795F82D0040F0080085F82D003046CD
:1029900079E700002E2E5C2E2E5C2E2E5C5468698A
:1029A00072645F70617274795C6C7769702D312E1E
:1029B000342E315C7372635C636F72655C64686350
:1029C000702E63006E6574696620213D204E554C63
:1029D0004C000000417373657274696F6E2022258C
:1029E0007322206661696C6564206174206C696E75
:1029F0006520256420696E2025730D0A0000000003
:102A00007062756620705F6F7574207761736E27D2
:102A100074206672656564007265706C79207761F8
:102A2000736E27742066726565640000284E010885
:102A30004524000870B5054600BF002D09D100BF30
:102A400017A340F2C74222A128A0FDF7F1FF00BF63
:102A500070BD00BF2C6A95F82D0020F0080085F8A5
:102A60002D0000BF00BF002C17D0606820B1606847
:102A70000FF0F2FF0020606000BFA06840B100BF0F
:102A800007A340F2DA4224A118A0FDF7D1FF00BF4E
:102A900000BF00212046FFF7DDFE00BFD8E70000A1
:102AA0002E2E5C2E2E5C2E2E5C54686972645F7034
:102AB000617274795C6C7769702D312E342E315CC3
:102AC0007372635C636F72655C646863702E63002D
:102AD000646863705F73746F703A206E65746966C2
:102AE00020213D204E554C4C000000004173736581
:102AF0007274696F6E2022257322206661696C658D
:102B000064206174206C696E6520256420696E20E4
:102B100025730D0A000000007265706C79207761E2
:102B2000736E2774206672656564000070B5054693
:102B30002C6A00BF00BF207B012805D0207B0A281B
:102B400002D0207B052804D100BF00BF2846FFF734
:102B5000B3FD70BD70B505462C6A00BF00BF207B79
:102B6000012805D0207B0A2802D0207B052804D12B
:102B700000BF00BF2846FFF7BDFB70BD86B0002038
:102B8000029000BF2348007810B101283AD108E034
:102B90002148FFF767FE0020029001201D490870C0
:102BA00031E01D4840680290029890B10220194916
:102BB00008701948FFF73EFF9DF80B0000909DF844
:102BC0000A309DF809209DF8081014A0FDF730FF89
:102BD00017E01148006A407B042812DD03200D49EC
:102BE00008700D48FFF726FF184805906FF07F40EA
:102BF00004901748039003AB04AA05A9064807F000
:102C000036FC00E000BF00BF4FF4FA6011F0FEF8A0
:102C1000B8E7000006000020080200200D0A444822
:102C20004350202D2D206576616C20626F617264A7
:102C300020697020616464726573733A2025642E84
:102C400025642E25642E2564200D0A00C0A8808AE4
:102C5000C0A8800170B505462C6A00BF00BF207B6C
:102C60000C2802D0207B062805D100BF00BF2846D3
:102C7000FEF75CFD4FE0207B012811D100BF00BFB3
:102C8000607B052803DC2846FFF762FD43E000BFB8
:102C900000BF2846FFF7B4FC2846FEF747FD3AE0A0
:102CA000207B08280CD100BF00BF607B012803DC1B
:102CB0002846FEF793FA2EE02846FEF7B1F92AE0FF
:102CC000207B052805D100BF00BF2846FFF7F4FC94
:102CD00021E0207B042811D100BF00BF607B0828C1
:102CE00003DC2846FFF706FB15E000BF00BF2846BF
:102CF000FFF786FC2846FEF719FD0CE0207B032831
:102D000009D1607B022803DA2846FFF73FFB02E087
:102D10002846FEF70BFD70BD10B5044600BF00BF8E
:102D2000FEF780FA002203494EF660200AF0A6FB67
:102D300010BD0000192D000810B5044600BF00BFEB
:102D4000FEF766FD002203494FF4FA700AF096FB85
:102D500010BD0000392D000810B50446206890F918
:102D6000080010F1090F03DA2068007A207127E0CB
:102D7000FA2020712068406810B32068007800F0C5
:102D8000F000102812D0202808D0402816D1226840
:102D9000A168506809F052FB207110E0A2892368F5
:102DA000A16858680FF0FCFB207108E0A289236835
:102DB000A16858680AF04EFE207100E000BF00BF15
:102DC000216801F10C000AF020FB10BD2DE9F0474D
:102DD000044600BF44B900BF67A34FF43C7273A11F
:102DE00076A0FDF725FE00BF00BF00BF20781028A9
:102DF00008D000BF60A340F2F1227BA16FA0FDF7D5
:102E000017FE00BF00BF00BF6078042808D000BFD5
:102E100059A340F2F2227CA168A0FDF709FE00BF91
:102E200000BF00BF606840B900BF53A340F2F32267
:102E30007EA162A0FDF7FCFD00BF00BF00BFA06A3D
:102E4000002808D100BF4CA34FF43D727CA15BA0C9
:102E5000FDF7EEFD00BF00BFA06A067A06F001078D
:102E600006F00208032E01D1012000E00020814677
:102E7000B9F1000F03D0002160680AF0E9FD606835
:102E8000007E012804D1002160680AF078FD1BE073
:102E90003FB1002160680DF011FE002160680AF06A
:102EA0006EFDB8F1000F03D0002160680EF08CF8C1
:102EB000B9F1000F08D00422002160680CF072FD07
:102EC000002160680BF060FBB9F1000F04D060686E
:102ED0000BF054F8054605E04246394660680EF0AE
:102EE000C9F8054635BB0020A16A0871A062607070
:102EF000B9F1000F07D06060E06A20B10022042120
:102F00002046E36A984737B1E06A20B100221146B3
:102F10002046E36A9847B8F1000F06D0E06A20B176
:102F2000002202212046E36A984704F10C000AF0CF
:102F30006CFA1FE000BF6068007E012808D100BF66
:102F40000DA340F22D3245A11CA0FDF771FD00BF7D
:102F500000BF4B4960680EF037F8042249496068A9
:102F60000CF020FD484960680BF00EFB21466068BC
:102F70000AF06EFDBDE8F0872E2E5C2E2E5C2E2E04
:102F80005C54686972645F70617274795C6C7769B3
:102F9000702D312E342E315C7372635C6170695C0C
:102FA0006170695F6D73672E63000000696E766102
:102FB0006C696420636F6E6E00000000417373657E
:102FC0007274696F6E2022257322206661696C65B8
:102FD00064206174206C696E6520256420696E2010
:102FE00025730D0A0000000074686973206973205E
:102FF000666F7220746370206E6574636F6E6E739B
:10300000206F6E6C79000000636F6E6E206D7573BB
:103010007420626520696E207374617465204E456A
:1030200054434F4E4E5F434C4F53450070636220F4
:10303000616C726561647920636C6F736564000014
:10304000636F6E6E2D3E63757272656E745F6D7325
:103050006720213D204E554C4C000000436C6F739F
:10306000696E672061206C697374656E207063629D
:10307000206D6179206E6F74206661696C2100009B
:1030800011D1000811BB0008D145000810B5044655
:1030900020684078002819D020684078022815D090
:1030A00020684078032811D000BF206800781028DD
:1030B00008D000BF3FA340F247324BA152A0FDF71A
:1030C000B7FC00BF00BFFB20207165E000BF206897
:1030D000407803280FD1206890F8200000F0040009
:1030E000002808D100BF33A340F24A3251A146A0C4
:1030F000FDF79EFC00BF00BF206806F029FA20689B
:103100004068002838D02068007800F0F0001028CF
:1031100011D0202806D0402829D12168486809F01C
:10312000EDF925E0002021684968C86121684868F8
:103130000FF092FC1CE000BF2068806A10B9206884
:10314000406A40B100BF1BA340F25F3241A12EA0F4
:10315000FDF76EFC00BF00BF04202168487003200B
:103160002072206884622068FFF730FE10BD00BF27
:1031700000BF0020216848602068C06A20B1206834
:1031800000221146C36A98472068C06A20B12068AF
:1031900000220221C36A9847216801F10C000AF05D
:1031A0003DF920B1216801F10C000AF02EF900BFB1
:1031B000DCE700002E2E5C2E2E5C2E2E5C546869FF
:1031C00072645F70617274795C6C7769702D312EF6
:1031D000342E315C7372635C6170695C6170695F2D
:1031E0006D73672E630000006D73672D3E636F6E15
:1031F0006E2D3E74797065203D3D204E4554434F01
:103200004E4E5F5443500000417373657274696F92
:103210006E2022257322206661696C6564206174CA
:10322000206C696E6520256420696E2025730D0A67
:1032300000000000626C6F636B696E6720636F6EE5
:103240006E65637420696E2070726F677265737348
:1032500000000000616C72656164792077726974A6
:10326000696E67206F7220636C6F73696E67000010
:1032700010B5044620684068002853D0207C28B14F
:103280002168A06849680968016004E02168A068B5
:10329000496849680160002020712068007800F0CA
:1032A000F000102825D020280CD040282DD1207CDB
:1032B00028B120684068017CE068018001E0F320CB
:1032C00020712EE0207C28B120684068418AE068A7
:1032D00001800DE020684068007C00F0040010B917
:1032E000F320207104E020684068818AE068018052
:1032F00017E0207C18B120684068408B02E020680D
:103300004068808BE16808800BE000BF00BF09A324
:1033100040F29B5214A11AA0FDF78AFB00BF00BF28
:1033200000BF01E0F3202071216801F10C000AF0D8
:103330006CF810BD2E2E5C2E2E5C2E2E5C5468690F
:1033400072645F70617274795C6C7769702D312E74
:10335000342E315C7372635C6170695C6170695FAB
:103360006D73672E63000000696E76616C6964207E
:103370006E6574636F6E6E5F747970650000000037
:10338000417373657274696F6E2022257322206603
:1033900061696C6564206174206C696E65202564C8
:1033A00020696E2025730D0A0000000070B50446E8
:1033B000206890F9080010F1090F03DA2068007AFC
:1033C000207150E0F32020712068406800284AD026
:1033D00020680078102844D120684078002842D125
:1033E00021684868FF210BF0DDFD054615B9FF2077
:1033F000207135E0216801F1100009F0D7FF48B1D4
:10340000216801F1100009F099FF216801F1100015
:1034100009F0B9FF00202071216801F1140009F0C2
:10342000C5FF30B9216801F11400002109F08FFFB8
:103430002071207970B902202168487020684560A9
:10344000216848680AF004FB2168486809490AF0C5
:1034500096FA05E028460AF091FD002021684860B0
:1034600001E0F2202071216801F10C0009F0CDFF8C
:1034700070BD0000710D000810B5044600202071D9
:103480002068406810B9204608F0BCF9216801F1B5
:103490000C0009F0BAFF10BD70B504460020207181
:1034A00020684068B0B120680078102812D1A56863
:1034B00000BFB5F5803F02D34FF6FF7000E0A8B221
:1034C00006462168486831460DF066FBAD1B002DAD
:1034D000EFD100BF216801F10C0009F096FF70BD2B
:1034E00070B50446206890F9080010F1090F03DA5E
:1034F0002068007A207140E0F32020712068406845
:1035000000283AD02068007800F0F000202819D078
:10351000402830D1A068083010B1A068806838B960
:10352000A26811682268506809F008F8207108E064
:10353000A36803F1080219682368586809F008F8BD
:10354000207119E0A068083010B1A068806838B90F
:10355000A2681168226850680FF09EFA207109E095
:10356000A568AB8905F108022968256868680FF02D
:103570009DFA207100E000BF00BF216801F10C003E
:1035800009F043FF70BD000010B50446206890F9B3
:10359000080010F1090F03DA2068007A20713DE07D
:1035A00020680078102837D12068407810B1FB20BF
:1035B000207133E02068406800282AD0012021686B
:1035C000487000BF2068806A18B92068406A0028E7
:1035D00008D000BF15A340F24C5221A127A0FDF74F
:1035E00027FA00BF00BF00BFE06840B900BF0FA3CB
:1035F00040F24E522CA121A0FDF71AFA00BF00BFE5
:1036000020688462002021684862206800F056F833
:1036100010BDF320207101E0FA202071216801F132
:103620000C0009F0F2FE00BFF2E700002E2E5C2E27
:103630002E5C2E2E5C54686972645F7061727479BE
:103640005C6C7769702D312E342E315C7372635C43
:103650006170695C6170695F6D73672E6300000063
:10366000616C72656164792077726974696E672034
:103670006F7220636C6F73696E67000041737365CE
:103680007274696F6E2022257322206661696C65F1
:1036900064206174206C696E6520256420696E2049
:1036A00025730D0A000000006D73672D3E6D736772
:1036B0002E772E6C656E20213D2030002DE9F84FCD
:1036C00004460020009094F8200000F0020020B989
:1036D000A06A007C00F0040008B1012000E0002096
:1036E0000746A06A90F8108000BF44B900BF6AA3E3
:1036F00040F2C34275A179A0FDF79AF900BF00BF5F
:1037000000BF6078012808D000BF63A340F2C44224
:103710007DA172A0FDF78CF900BF00BF00BFA06AB9
:10372000002808D100BF5CA340F2C5427EA16BA077
:10373000FDF77EF900BF00BF00BF606840B900BF61
:1037400055A340F2C6427FA164A0FDF771F900BF06
:1037500000BF00BFD4E90910C068814208D300BF90
:103760004DA340F2C7427DA15CA0FDF761F900BF07
:1037700000BFA06A8068616A00EB010BA06AC068A4
:10378000616AA0EB010ABAF5803F04D34FF6FF76D9
:1037900048F0020801E01FFA8AF66068B0F8669007
:1037A000B14507DA4E461FB126B96FF006051DE098
:1037B00048F0020800BF606A8119A06AC0688142AF
:1037C00008D900BF34A340F2F54271A143A0FDF730
:1037D0002FF900BF00BF43463246594660680EF0DD
:1037E0006FF805460DB1681C30BB00BF8FB1A06AF1
:1037F000C068B0420DD9E06A20B1324603212046AC
:10380000E36A984794F8200040F0100084F8200004
:1038100012E06068B0F8660040F66731884204DD67
:103820006068B0F86800052806DBE06A20B132461F
:1038300003212046E36A98479DB9606A304460627C
:10384000D4E90910C068814200D037B1D4E9091029
:10385000C160012000900020606260680BF0A0FC55
:103860000BE0681C20B91FB960680BF099FC04E0FC
:10387000012000900021A06AC160009840B1A06AB8
:1038800005710020A062607004F10C0009F0BDFD1C
:103890000020BDE8F88F00002E2E5C2E2E5C2E2E10
:1038A0005C54686972645F70617274795C6C77698A
:1038B000702D312E342E315C7372635C6170695CE3
:1038C0006170695F6D73672E63000000636F6E6ED9
:1038D00020213D204E554C4C000000004173736583
:1038E0007274696F6E2022257322206661696C658F
:1038F00064206174206C696E6520256420696E20E7
:1039000025730D0A00000000636F6E6E2D3E737408
:10391000617465203D3D204E4554434F4E4E5F57E8
:103920005249544500000000636F6E6E2D3E637572
:103930007272656E745F6D736720213D204E554C29
:103940004C000000636F6E6E2D3E7063622E7463D8
:103950007020213D204E554C4C000000636F6E6E70
:103960002D3E77726974655F6F6666736574203C7F
:1039700020636F6E6E2D3E63757272656E745F6D3F
:1039800073672D3E6D73672E772E6C656E00000099
:10399000646F5F77726974656D6F72653A20696EE6
:1039A00076616C6964206C656E6774682100000044
:1039B0000020174908681749084000BF14490860EB
:1039C0000021134A51609160D160114688694FF619
:1039D0004171084040F08000114688614FF4A851C1
:1039E0000D4A116000210A4AD1610B49803988696A
:1039F0000A49084040F00870074980398861086822
:103A000007490840074804498039086070470000AA
:103A1000008002400F8130FD80900240233FDEF89D
:103A20007D0000F80060C10210B540F60E2009F0DC
:103A300019F840F60E2009F005F800F0F9FB10BD6A
:103A40000021014600E0491E0029FCD1704700001A
:103A500002464FF0FF30062923D2DFE801F01E1C9A
:103A60000B03071A9388C3F30C001BE05368C3F3DE
:103A70000C4017E01368C3F30D40001F0A4B1B688E
:103A800003F0007323B1137803F0200303B1001D8A
:103A900008E0906806E0906804E01378C3F3C30080
:103AA00000E000BF00BF7047008002402DE9F043F6
:103AB000044600210025002600278C46B4F5E00FBF
:103AC0000FD12348234B052540F2F4564FF48017BD
:103AD000DFF88480C8F81000DFF88080C8F80000A4
:103AE0000FE01F481F4B052540F2F456EF0744F244
:103AF000F45CDFF86480C8F80C00DFF86C80C8F86C
:103B000000004FF00008DFF86490C9F80080DFF88B
:103B10006090C9F80080002115E000EB01121760E9
:103B2000C2F804C001FB0638C2F80880A5F10108FC
:103B3000884506D900EB011808F11008C2F80C807E
:103B400000E0D060491CA942E7D3BDE8F083000043
:103B5000CC020020E0200020009002404C00002019
:103B60007C0200201C030020500000205800002090
:103B70005400002000B500F0FDFC00F0A7FC00BDE3
:103B800030B503460C460021002238480068006822
:103B900000F0004008B1002030BD002B34D0334885
:103BA0000068008800F4004060BB3048006800886E
:103BB00000F4807030B32D480068008800F4007075
:103BC00000B32A4800680068C0F30D42121F28485D
:103BD000006800F0007030B124480068007800F000
:103BE000200000B1121DA24201D90020D4E700211B
:103BF00005E01E4800688068405C5854491C9142AA
:103C0000F7D301E00020C7E74FF00040174D2D68C3
:103C100028601848406900F0800020B18020154DD0
:103C200068610020A86011480068808800F4804026
:103C300028B10E480068C0680C4D286014E00B489D
:103C40000068808800F4004020B10A48C068074D31
:103C5000286009E007480068C0F38405034800684D
:103C600010302844014D2860012095E750000020C5
:103C7000008002400090024070B5034600222F48A9
:103C80000068006800F0004008B1002070BD40F2FC
:103C9000F450814201D90020F8E74BB1002205E041
:103CA000985C264E3668B668B054521C8A42F7D3E8
:103CB00022480068416021480068006840F0405098
:103CC0001E4E366830601D480068006840F00040B5
:103CD0001A4E366830601A48406900F004051848EA
:103CE000406900F0200405B92CB145EA0400144EE7
:103CF00070610020706011480068006800F4801056
:103D000028B10E480068C0680C4E306014E00B48C3
:103D10000068006800F4001020B109480069074EEF
:103D2000306009E006480068C0F384060348006874
:103D300010303044014E30600120A7E74C000020D5
:103D40000090024038B500200090002400BF6B4670
:103D500001221146002000F065FB6B46012211464E
:103D6000002000F05FFBBDF8000000F004000090B0
:103D70004FF47A7010F04AF8641CBDF8000008B9DE
:103D8000052CE4D3BDF80000042801D1012038BD82
:103D90000020FCE710B540F2026008F043FE40F25C
:103DA000036008F03FFE40F2046008F03BFE4FF471
:103DB000C06008F037FE4FF48073042218213B489E
:103DC00002F044F94FF0C06008F082FC002002F0DD
:103DD0002FF9012304221146344802F037F9022357
:103DE00004221146314802F031F904231A46182101
:103DF0002E4802F02BF90823042211462B4802F02A
:103E000025F9802304221146284802F01FF90123D6
:103E100004221146264802F019F902230422114611
:103E2000234802F013F94FF480730422182120482C
:103E300002F00CF94FF48063042211461C4802F092
:103E400005F94FF4006304221821194802F0FEF826
:103E50004FF4805304221821154802F0F7F84FF46C
:103E6000005304221821124802F0F0F80223042221
:103E70001821104802F0EAF804231A4618210D48C8
:103E800002F0E4F80823042211460A4802F0DEF8A2
:103E9000102304221146074802F0D8F820230422F8
:103EA0001146044802F0D2F810BD0000000801409D
:103EB000000C0140001001402DE9F74F82B081460F
:103EC0008A460024002500260027A04600200190F5
:103ED0008346009000F034FA48B9CA48FFF7B0FDB5
:103EE00000F02EFA18B9009805B0BDE8F08F00F088
:103EF000FFFA08B90098F7E7FFF75AFD4F46012F80
:103F000062D100BF01AB01221146002000F08AFA05
:103F100001AB01221146002000F084FABDF8040034
:103F200000F00400019008F10108BDF8040010B988
:103F3000B5488045E6D3B448804501D10098D3E721
:103F40004FF000084FF48050019001AB0022012196
:103F5000022000F067FA8346BBF1000F01D1009800
:103F6000C2E700BF01AB01221146002000F05AFA5F
:103F7000BDF8040000F02000019008F10108BDF830
:103F8000040010B9A0488045ECD39F48804501D17A
:103F90000098A9E74FF0000801AB0022012110466C
:103FA00000F040FABDF8040000F4807010B14FF446
:103FB000006700E00027BDF8040000F4005010B1D5
:103FC00047F480471BE01AE007F40060C008019046
:103FD00007F48040BDF8041041EA5000019001ABA5
:103FE00000220121022000F01DFA8346BBF1000FE0
:103FF00001D1009878E76FF07F40FFF721FD8348FB
:10400000046824F4B0443C4304600AF4806070B156
:104010007E48006840F480607C4908607C48846980
:1040200024F080640AF08060044379488461774812
:10403000406804990843754948607648007800F064
:104040000100A8B173484568084604682E467248C6
:104050000440C04306403443084604606C48846909
:104060002E4624F0C00406F4407644EA96048461A7
:104070006848007800F0020040B1664886686448ED
:10408000046866480440344361480460614800782D
:1040900000F0040040B15F48C6685D4804686048AD
:1040A000044034435A4804605A48007800F008003D
:1040B00048B158480669564804684CF202008443E7
:1040C0003443534804605348007800F0100040B176
:1040D000504846694E4884695248044034434C482D
:1040E00084614C48007800F0200098B14948856907
:1040F000474884692E464C480440C0430640344338
:104100004348846104682E4624F0800406F080064B
:10411000344304603F48007800F0400038B13D4827
:10412000C5693A48C4696FF310042C43C461394827
:10413000007800F08000C0B13648056A33488469D1
:104140002E464FF641700440864334432F48846125
:104150002F48803004682E4624F0770406F4EE469B
:1041600044EA16242A48C0F880402A48008800F40F
:10417000807018B12748406A244988602548008823
:1041800000F4007018B12348806A2049C8602148B3
:10419000008800F4806048B11E48C56A1B48446826
:1041A00040F2DE7084432C4318484460194800886C
:1041B00000F4006040B11748056B144804681B48C0
:1041C00004402C43114804601248008800F48050D9
:1041D00038B11048456B0D48046824F440042C4362
:1041E00004600C48008800F4005038B10948856B21
:1041F0000648046824F460242C43046001200090E5
:10420000009871E6FFFF8F00FFFF0400008002406E
:1042100000900240A43E00207FFFFFFDFFFFFEF85C
:10422000FFC001FFE73FDEFDFBFFFFFE8FDDFEFF6E
:1042300000200849086048608860C86008614861DB
:104240008861C861086248628862C862086348631E
:1042500088637047A43E002041F21C01B1EB901F1F
:104260000DD10E4A02EB9011096800F01F030122E4
:104270009A401143094B03EB901211600CE0074A7E
:1042800002EB9011096800F01F0301229A4091434C
:10429000024B03EB90121160704700000080024057
:1042A00000F01F0201219140024B03EB90121160BC
:1042B00070470000008002400146074A02EB91105F
:1042C000006801F01F0301229A40104008B101204C
:1042D00070470020FCE70000008002400A794B791B
:1042E00042EA0322084B03441A64CA7812068B7808
:1042F00042EA03424B7842EA03220B781A43024B0C
:1043000003445A64704700000080024010B540F238
:104310000E5008F087FB40F20F5008F083FB4FF47B
:10432000A26008F07FFBFFF77FFB0022114601200F
:10433000FFF7C2FD0149086010BD00001800002011
:10434000F8B500262F48056925F01C05012008F066
:10435000CBF904462C48844205D32C48844202D22F
:1043600045F008051DE02948844205D328488442C9
:1043700002D245F00C0514E02548844203D32548B9
:10438000844200D20DE02348844202D32248844272
:1043900002D32148844202D145F0040501E03046B1
:1043A000F8BD184805614FF4004000906B460022AC
:1043B0000121022000F036F808B93046F0E717482E
:1043C000FFF73EFB6B4600220121104600F02AF861
:1043D00008B93046E4E7BDF8000000F4004000B939
:1043E00001264FF4004000906B4618220121022064
:1043F00000F018F808B93046D2E70948FFF720FB6B
:104400003046CDE700800240002D3101C00E16027B
:104410000087930300E1F505000E2707FBFF180056
:10442000FFFF04002DE9F04104460D46002700205F
:10443000DFF884C0DCF810104FF6C37C21EA0C01D1
:104440004FF4F86C0CEA821C4CEA040C4FF47848E8
:1044500008EAC5284CEA080C4CF0010C4CEA0101B2
:10446000022C05D1B3F800C0DFF84C80C8F814C0A6
:10447000DFF844C0CCF8101000BFDFF83CC0DCF817
:1044800010C00CF001067F1C1EB1DFF830C067457C
:10449000F3D1DFF824C0DCF810C00CF0010CBCF143
:1044A000000F00D101202CB9DFF80CC0DCF814C0DB
:1044B000A3F800C0BDE8F08100800240FFFF0400C7
:1044C000416821F0004141607047000006480068E3
:1044D00040F00400044908600448806940F002008C
:1044E000024988617047000000800240009002404D
:1044F00010B5002100200B4B1B6843F00103094C51
:10450000236000BF074B1B6803F00102491C12B176
:10451000054B9942F6D1034B1B6803F0010303B925
:10452000012010BD00900240FFFF040010B50024E0
:1045300006F0EEF9FFF72EFCFFF7E8FE07480068EB
:1045400008B9204610BD0648FFF786FE04480A3821
:10455000FFF782FE01242046F4E700001800002047
:1045600010070400026822F44002026002680A4355
:104570000260704700B50748006840F00800054930
:10458000086000F00BF80448806940F400500249CC
:10459000886100BD008002400090024010B50022FA
:1045A0000020094B9B6943F48013074CA36100BFB3
:1045B000054B9B6903F48011521C11B1034B9A42C5
:1045C000F6D301B9012010BD00900240FFFF0400A6
:1045D0002DE9F04707460E463C4600BF44B900BFF0
:1045E0003BA34FF4B17247A14AA0FCF721FA00BFE8
:1045F00000BF0020606008F066FE814626724846D3
:1046000008F091FE657800206070E06A20B1002219
:1046100004212046E36A9847E06A20B1002211464F
:104620002046E36A9847E06A20B100220221204632
:10463000E36A984704F1100008F0B8FE20B10021A9
:1046400004F1100008F0A2FE04F1140008F0AEFE20
:1046500020B1002104F1140008F098FE012D03D0D0
:10466000042D01D0032D24D194F82000C0F380083C
:1046700000BF94F8200020F0040084F8200000BF60
:10468000B8F1000F14D100BFA06A40B900BF10A359
:1046900040F28B122AA11FA0FCF7CAF900BF00BF8D
:1046A000A06A06710020A06204F10C0008F0ADFEC3
:1046B0000CE000BFA06A40B100BF05A34FF4C9726F
:1046C00026A114A0FCF7B4F900BF00BFBDE8F08735
:1046D0002E2E5C2E2E5C2E2E5C54686972645F70E8
:1046E000617274795C6C7769702D312E342E315C77
:1046F0007372635C6170695C6170695F6D73672E72
:1047000063000000636F6E6E20213D204E554C4CBF
:1047100000000000417373657274696F6E2022257A
:104720007322206661696C6564206174206C696E17
:104730006520256420696E2025730D0A00000000A5
:10474000636F6E6E2D3E63757272656E745F6D730E
:104750006720213D204E554C4C000000636F6E6E6B
:104760002D3E63757272656E745F6D7367203D3D9B
:10477000204E554C4C0000002DE9FC47054688466C
:10478000164600BF002D0AD100BF53A340F2BB2242
:104790005EA162A0FCF74CF900BFBDE8FC8700BF3A
:1047A00070892A2805DA00BF00BF304606F0C4FD34
:1047B000F3E7776807F10E042088B0F5807F08D111
:1047C0002079062805D16079042802D1608808285C
:1047D00005D000BF00BF304606F0AEFDDDE7D4F8DF
:1047E0000E000190A0690090281D08B1686810B9FA
:1047F0004FF0000907E000986968884201D1012064
:1048000000E000208146B9F1000F01D0012000E056
:104810000220034604F1080201A9284600F0DEFE4A
:10482000E088B0F5807F03D0B0F5007F4BD143E046
:1048300000BF00BFB9F1000F35D000BF00BF02209C
:1048400002F0C3FFE080D4F80E00A0616868C4F8ED
:104850000E0000BF95F82600062808D000BF1EA352
:1048600040F2113238492DA0FCF7E2F800BF00BF3A
:10487000A068C4F81200A089E082A0683860A0890E
:10488000B880D8F80000A060B8F80400A081D8F87B
:104890000000C7F80600B8F80400788131462846C1
:1048A000AA69904707E0281D08B1686808B900BFE9
:1048B00001E000BF00BF09E000BF00BF01A928461A
:1048C000FCF750FB02E000BF00BF00BF00BF304656
:1048D00006F032FD00BF60E72E2E5C2E2E5C2E2EE1
:1048E0005C54686972645F70617274795C6C77693A
:1048F000702D312E342E315C7372635C6E65746979
:10490000665C6574686172702E6300006E65746920
:104910006620213D204E554C4C00000041737365CC
:104920007274696F6E2022257322206661696C653E
:1049300064206174206C696E6520256420696E2096
:1049400025730D0A00000000C850010870B5054627
:10495000002412E004EB8400094901EB8000867C0E
:104960004EB104EB840001EB80008068A84202D1C4
:10497000204600F085F9601CC4B20A2CEADB70BD49
:10498000948E00202DE9FE4F064688464FF00A0916
:10499000CA460A270024002002900190BB460090DE
:1049A00000BF6FE004EB8400764901EB8000857C5A
:1049B0000A2F04D11DB900BF00BF67B260E0002D0F
:1049C0005ED000BF012D0AD0022D08DA00BF6EA311
:1049D00040F22B1279A189A0FCF72AF800BF00BF92
:1049E0006EB104EB8401674A02EB810130684968CB
:1049F000884204D100BF00BF60B2BDE8FE8F012D28
:104A00002AD104EB84005F4951F8200088B104EBFF
:104A1000840001EB8000C17C0098814230DB4FFABA
:104A200084FB04EB8400574901EB8000C07C0090BC
:104A300026E004EB8400534901EB8000C17C02981E
:104A400081421DDB4FFA84F904EB84004D4901EBF0
:104A50008000C07C029013E0022D11DB04EB840087
:104A6000484901EB8000C17C0198814208DB4FFA84
:104A700084FA04EB8400434901EB8000C07C019080
:104A8000601CC4B20A2C8DDB08F0020020B90A2F8A
:104A900007D108F0010020B900BF00BF4FF0FF3080
:104AA000ABE70A2F02DAFCB200BF3AE0BAF10A0F14
:104AB00014DA0AF0FF0400BF00BF00BF04EB84005B
:104AC000304951F8200040B100BF2FA340F27112CD
:104AD00055A14AA0FBF7ACFF00BF12E0B9F10A0FE5
:104AE00003DA09F0FF0400BF0BE0BBF10A0F03DAA1
:104AF0000BF0FF0400BF04E000BF00BF4FF0FF3029
:104B00007BE700BF0A2C08DB00BF1FA340F2831223
:104B10004BA13AA0FBF78CFF00BF00BF204600F07E
:104B2000AFF800BF0A2C08DB00BF17A340F28712C2
:104B300043A132A0FBF77CFF00BF00BF00BF04EB26
:104B40008400104901EB8000807C40B100BF0EA3BF
:104B50004FF4C4723FA129A0FBF76AFF00BF00BF5A
:104B600036B104EB8401074A02EB810130684860EA
:104B7000002004EB8401034A02EB8101C87460B297
:104B80003BE70000948E00202E2E5C2E2E5C2E2EF5
:104B90005C54686972645F70617274795C6C776987
:104BA000702D312E342E315C7372635C6E657469C6
:104BB000665C6574686172702E6300007374617462
:104BC00065203D3D204554484152505F5354415467
:104BD000455F50454E44494E47207C7C20737461AC
:104BE0007465203E3D204554484152505F53544126
:104BF00054455F535441424C450000004173736576
:104C00007274696F6E2022257322206661696C655B
:104C100064206174206C696E6520256420696E20B3
:104C200025730D0A000000006172705F7461626C90
:104C3000655B695D2E71203D3D204E554C4C00005A
:104C400069203C204152505F5441424C455F5349DA
:104C50005A4500006172705F7461626C655B695DEA
:104C60002E7374617465203D3D2045544841525077
:104C70005F53544154455F454D5054590000000066
:104C800010B5044604EB8400194951F8200070B1B6
:104C900000BF00BF04EB8401154A52F8210006F062
:104CA0004BFB002004EB8401114A42F82100002054
:104CB00004EB84010E4A02EB8101887404EB840149
:104CC00002EB8101C87404EB840102EB810188606E
:104CD00004EB840102EB8101486004EB840011467F
:104CE00001EB800003490A68C2608988018210BD17
:104CF000948E0020764E01082DE9FC4704460F46AD
:104D00001546A94600BF002C08D100BF59A340F2A8
:104D1000753265A168A0FBF78BFE00BF00BF00BF26
:104D200047B900BF53A340F276326EA162A0FBF7F1
:104D30007FFE00BF00BF00BF45B900BF4DA340F2DA
:104D400077326BA15CA0FBF773FE00BF00BF0E21A2
:104D5000384606F0AFFB28B100BF00BF6FF001007E
:104D6000BDE8FC872146286801F0C2FE10B1DFF8DB
:104D7000908177E0287800F0F000E02815D101203C
:104D80008DF8000000208DF801005E208DF80200F3
:104D9000687800F07F008DF80300A8788DF8040093
:104DA000E8788DF80500E8465BE02868A1680840CF
:104DB000D4E901121140884210D0288880B24FF601
:104DC000A96188420AD004F10C0020B1E06810B15A
:104DD00004F10C0902E06FF00300C1E749480078D4
:104DE00000EB8000484901EB8000807C022812DB48
:104DF0004449097801EB8101434A02EB8101D9F86A
:104E000000004968884206D13E480278394620466B
:104E100000F07CF8A4E700261BE006EB86003A4988
:104E200001EB8000807C022811DB06EB8601364A0C
:104E300002EB8101D9F800004968884207D1314965
:104E40000E70F2B23946204600F060F888E7701C18
:104E500046B20A2EE1DB3A464946204600F0E6F823
:104E60007EE700BF434604F127023946204600F0A2
:104E70000DFB75E72E2E5C2E2E5C2E2E5C54686981
:104E800072645F70617274795C6C7769702D312E19
:104E9000342E315C7372635C6E657469665C657434
:104EA000686172702E6300006E6574696620213D32
:104EB000204E554C4C000000417373657274696F4D
:104EC0006E2022257322206661696C6564206174FE
:104ED000206C696E6520256420696E2025730D0A9B
:104EE000000000007120213D204E554C4C00000078
:104EF00069706164647220213D204E554C4C000065
:104F0000704E010820010020948E002070B50546E7
:104F10000E46144600BF04EB84001F4901EB8000DD
:104F2000807C022808DA00BF1CA34FF4537228A12A
:104F300033A0FBF77DFD00BF00BF04EB84001649E2
:104F400001EB8000807C022817D104EB840001EB88
:104F50008000C07CE42810DB04EB84000A4602EBEE
:104F60008000011D284600F079FA30B9032004EBD7
:104F70008401094A02EB8101887404EB840006492C
:104F800001EB800000F10C0305F1270231462846B1
:104F900000F07CFA70BD0000948E00202E2E5C2E56
:104FA0002E5C2E2E5C54686972645F706172747935
:104FB0005C6C7769702D312E342E315C7372635CBA
:104FC0006E657469665C6574686172702E6300005A
:104FD0006172705F7461626C655B6172705F69645D
:104FE000785D2E7374617465203E3D2045544841C0
:104FF00052505F53544154455F535441424C450015
:10500000417373657274696F6E2022257322206666
:1050100061696C6564206174206C696E652025642B
:1050200020696E2025730D0A000000002DE9F05F55
:1050300080460F46164608F127094FF0FF3A4146D1
:10504000386801F055FD38B9387800F0F000E028F4
:1050500002D00FB1386828B900BF00BF6FF00D0053
:10506000BDE8F09F01213846FFF78CFC0446002C78
:1050700006DA00BF00BF0EB100BF00BF2046EFE759
:1050800004EB84005C4901EB8000807C30B9012096
:1050900004EB8401584A02EB8101887400BF04EBE1
:1050A0008400554901EB8000807C01280FD004EB7F
:1050B000840001EB8000807C022808DA00BF4FA347
:1050C00040F219425AA164A0FBF7B2FC00BF00BF36
:1050D00004EB8400484901EB8000807C012800D06B
:1050E0003EB93946404600F0B9F982460EB95046FD
:1050F000B6E700BF46B900BF40A340F22D4261A110
:1051000055A0FBF795FC00BF00BF04EB84003A49B3
:1051100001EB8000807C02280FDB5D490C7004EB02
:105120008400354901EB800000F10C034A4631460A
:10513000404600F0ABF982465CE004EB84002E4967
:1051400001EB8000807C012854D14FF0000B3546E4
:1051500017E000BF6889298988420AD1286840B1D0
:1051600000BF26A340F23E424AA13BA0FBF760FCF1
:1051700000BF00BF287B012802D04FF0010B02E0E6
:105180002D68002DE5D100BFBBF1000F10D029899B
:105190000022032005F02EFC05466DB1314628465D
:1051A00005F0FCFE40B1284606F0C6F8002503E0F5
:1051B0003546284606F018FBBDB104EB84000E49C5
:1051C00051F8200040B100BF00BF04EB84010A4A3F
:1051D00052F8210006F0B0F804EB8400064941F8CB
:1051E00020504FF0000A00BF03E000BF00BF4FF0A7
:1051F000FF3A00BF504633E7948E00202E2E5C2EDF
:105200002E5C2E2E5C54686972645F7061727479D2
:105210005C6C7769702D312E342E315C7372635C57
:105220006E657469665C6574686172702E630000F7
:105230006172705F7461626C655B695D2E7374612D
:105240007465203D3D2050454E44494E47206F72C5
:1052500020535441424C4500417373657274696F29
:105260006E2022257322206661696C65642061745A
:10527000206C696E6520256420696E2025730D0AF7
:10528000000000007120213D204E554C4C000000D4
:10529000200100206E6F207061636B657420717552
:1052A0006575657320616C6C6F7765642100000023
:1052B0002DE9F84F0746884691469A46DDF828B012
:1052C0000020009000BF002F08D100BF39A340F29A
:1052D000A54245A148A0FBF7ABFB00BF00BF0022E1
:1052E0002A21032005F086FB05462DB900BF00BF2B
:1052F0004FF0FF30BDE8F88F00BF68892A2808DA30
:1053000000BF2CA34FF4966246A13BA0FBF790FB95
:1053100000BF00BF6E6806F10E0400BF00BF0D980D
:1053200002F053FAE08000BF97F82600062808D064
:1053300000BF20A34FF4976247492FA0FBF778FBEB
:1053400000BF00BFDAF80000A060BAF80400A08136
:105350000B980168C4F812108088E082D9F8000028
:105360003060B9F80400B080D8F80000C6F8060034
:10537000B8F804007081DBF80000C4F80E000C9847
:105380000068A0614FF480702080082060800620B3
:105390002071042060714FF4C160B0812946384605
:1053A000BA6990470090284605F0C6FF002500988E
:1053B000A0E700002E2E5C2E2E5C2E2E5C54686919
:1053C00072645F70617274795C6C7769702D312ED4
:1053D000342E315C7372635C6E657469665C6574EF
:1053E000686172702E6300006E6574696620213DED
:1053F000204E554C4C000000417373657274696F08
:105400006E2022257322206661696C6564206174B8
:10541000206C696E6520256420696E2025730D0A55
:1054200000000000636865636B2074686174206627
:105430006972737420706275662063616E20686F94
:105440006C64207374727563742065746861727023
:105450005F68647200000000C85001087FB5044610
:105460000D4600BF00BF0121064A201D04F127039D
:105470008DE825000391044A19462046FFF718FFDE
:1054800004B070BD764E0108704E01082DE9F04160
:1054900004460E4617469846756800BF94F82600E5
:1054A000062808D000BF0FA340F2A3121A491BA080
:1054B000FBF7BEFA00BF00BFD8F800002860B8F8BC
:1054C0000400A8803868C5F80600B88868810820FC
:1054D000A88100BF00BF31462046A2699047BDE8C1
:1054E000F08100002E2E5C2E2E5C2E2E5C546869FE
:1054F00072645F70617274795C6C7769702D312EA3
:10550000342E315C7372635C6E657469665C6574BD
:10551000686172702E630000C850010841737365A2
:105520007274696F6E2022257322206661696C6532
:1055300064206174206C696E6520256420696E208A
:1055400025730D0A0000000070B500BF00BF0024E5
:105550003FE004EB8400204901EB8000857C35B3FB
:1055600004EB840001EB8000C07C401C04EB840150
:10557000194A02EB8101C87404EB8400114601EB67
:105580008000C07CF0280DDA04EB840001EB800081
:10559000807C01280CD104EB840001EB8000C07CEE
:1055A000022805DB00BF00BF2046FFF769FB0EE0C5
:1055B00004EB8400084901EB8000807C032806D1BD
:1055C000022004EB8401044A02EB81018874601C10
:1055D000C4B20A2CBDDB70BD948E00202DE9F047CB
:1055E00006460D461746984600BF96F82600062840
:1055F00008D000BF2FA340F2C3123BA144A0FBF789
:1056000017FA00BF00BF00BF00BF5DB1286848B1F6
:105610003146286801F06CFA20B9287800F0F000D3
:10562000E02805D100BF00BF6FF00D00BDE8F08796
:1056300041462846FFF7A6F90446002C01DA204629
:10564000F4E7022004EB84013C4A02EB81018874F8
:1056500004EB8400114601EB8000866000BF00BFB0
:1056600004EB840001EB80003968C160B9880182D5
:10567000002004EB840102EB8101C87404EB840078
:10568000114651F8200098B104EB840051F82090A5
:10569000002004EB840142F821003B4606F127027A
:1056A00049463046FFF7F2FE484605F045FE00BF8A
:1056B0000020BBE72E2E5C2E2E5C2E2E5C546869DB
:1056C00072645F70617274795C6C7769702D312ED1
:1056D000342E315C7372635C6E657469665C6574EC
:1056E000686172702E6300006E657469662D3E6895
:1056F00077616464725F6C656E203D3D204554485F
:105700004152505F4857414444525F4C454E00005F
:10571000417373657274696F6E202225732220664F
:1057200061696C6564206174206C696E6520256414
:1057300020696E2025730D0A00000000948E002061
:105740002DE9F04104460E464FF00E0860890E2800
:1057500000DC55E0656800BF00BFAF89287800F025
:105760000100B0B12878012809D1687888B9A878F3
:105770005E280ED1607B40F01000607309E00622C5
:1057800022492846FAF7B9FD18B9607B40F00800B5
:105790006073082F03D0B7F5C16F2CD11EE096F8C7
:1057A0002D0000F0200000B92AE0C8F1000001B28D
:1057B000204605F07FFE00280BD000BF00BF14A3D9
:1057C00040F24F521FA128A0FBF732F900BF00BFE3
:1057D00016E03146204601F0B3F90DE096F82D00B1
:1057E00000F0200000B90BE0224606F12701304608
:1057F000FEF7C2FF00E003E000BF0020BDE8F0813B
:10580000204605F099FD0020F8E70000704E0108E1
:105810002E2E5C2E2E5C2E2E5C54686972645F7096
:10582000617274795C6C7769702D312E342E315C25
:105830007372635C6E657469665C657468617270CE
:105840002E63000043616E2774206D6F7665206FB4
:105850007665722068656164657220696E2070618A
:10586000636B657400000000417373657274696F47
:105870006E2022257322206661696C656420617444
:10588000206C696E6520256420696E2025730D0AE1
:105890000000000010B5044600BF44B900BF0C4B27
:1058A0004FF49D720BA10FA0FBF7C2F800BF00BF21
:1058B000472084F82E0044212F20015514486061B0
:1058C0001448A061204601F0C1FB002010BD00007B
:1058D0000C5101086E6574696620213D204E554CBF
:1058E0004C000000417373657274696F6E2022254D
:1058F0007322206661696C6564206174206C696E36
:105900006520256420696E2025730D0A00000000C3
:10591000F94C00082972000800BF002364221946D0
:10592000104800680EF0EDFC0128F6D100BF07F02A
:10593000CAFC05460C48006801F046FC04462846AF
:1059400007F0F1FC002CE8D007480068026906481F
:1059500001682046904718B1204605F0EDFCDCE7D1
:10596000E5E7000028010020240100202DE9F05F78
:1059700007468846EFB1BC69002C14DA07F0A3FC97
:105980008346B86900280ADAB8F1000F02D1B86975
:10599000401EB861584607F0C6FCBDE8F09FBC69E0
:1059A000584607F0C0FC204600F024FB05460DB920
:1059B000F3E7F2E707F087FC8346B8F1050F17D24B
:1059C000DFE808F003080D1013006889401C00B2DE
:1059D000688119E06889401E00B2688114E00120E6
:1059E000A88111E00020A8810EE00120E8810BE0F1
:1059F00000BF00BF3BA340F2195247A14AA0FBF7EA
:105A000017F800BF00BF00BF00BF686918B958464B
:105A100007F089FCC1E700BF4E4806685AE070698C
:105A2000002848D18146B5F90A0000280FDDB16889
:105A300069B1E11704EB5171C910B268515C04F00F
:105A4000070301229A40114009B14FF00109A889CA
:105A500090B1B9F1000F0FD1F16869B1E11704EB12
:105A60005171C910F268515C04F0070301229A4099
:105A7000114009B14FF00109E88990B1B9F1000F67
:105A80000FD1316969B1E11704EB5171C910326965
:105A9000515C04F0070301229A40114009B14FF014
:105AA0000109B9F1000F05D00120706106F118005D
:105AB00007F0ABFC00BF2848D0F800A0584607F01C
:105AC00032FC07F000FC834623480068824500D082
:105AD000A2E73668002EA2D1584607F024FC00BF8A
